:040000008DEF76F01A
:10E7E000A6A21200FDD78C5004098C6E12008C502A
:10E7F000FB0B8C6E12008B5002098B6E12008B503B
:10E8000001098B6E12008B50FE0B8B6E1200833849
:10E81000E8461F0B010B12008240E8423F0B010B40
:10E820001200000E296E000E286E12008C50BF0BD5
:10E830008C6E9268120001D000F0ACB21200FCD7CE
:10E8400001D000F09EA8FDD701C0ADFF120001D09D
:10E8500000F09EEC75F00C6E0CA01200F9D7400E83
:10E860006D6E010E6C6E210E6C6EA4508009A46E4C
:10E8700012000D0E026EFB0EE82EFED7022EFCD704
:10E8800000D0012EF6D712000250030BAA6E01C071
:10E89000A9FFA69CA69EA68000F000F0A85012003A
:10E8A00001D000F0A4AEFDD7A4507F0BA46E6FCFB3
:10E8B00002F001C06FFF1200FFEC73F0FBEC73F08D
:10E8C000800EC76E310EC66E9E5008099E6E1200F5
:10E8D00001D000F09EA6FDD79E50F70B9E6EC9CFCB
:10E8E00002F001C0C9FF1200000E026E000E016EA0
:10E8F00044EC74F0036E03B602D0010E1200000E59
:10E900001200000E026E000E016E44EC74F0036EF5
:10E9100003B402D0010E1200000E120001D000F06C
:10E920009EA6FDD79E50F70B9E6EC9CF01F0000E3C
:10E93000C96E01501200F7EC73F00CEC74F0000992
:10E94000D8A4FBD7F3EC73F00CEC74F00009D8A456
:10E950001200FAD703EC74F0036E060E016E03503A
:10E9600068EC74F001D000F09EA6FDD7FFEC73F0C8
:10E97000120003EC74F0036EC70E016E035068ECD6
:10E9800074F001D000F09EA6FDD7FFEC73F01200EA
:10E9900003EC74F0036E040E016E035068EC74F027
:10E9A00001D000F09EA6FDD7FFEC73F012008D5051
:10E9B00001098D6E000E926E8C5080098C6E01C024
:10E9C00080FF8C5040098C6E8C50BF0B8C6E1200F7
:10E9D0008D5001098D6E000E926E8C507F0B8C6EE7
:10E9E00001C080FF8C5040098C6E8C50BF0B8C6E28
:10E9F000120003EC74F0046E010E016E045068EC1A
:10EA000074F003C001F068EC74F001D000F09EA631
:10EA1000FDD7FFEC73F012000BD002C0F6FF03C06D
:10EA2000F7FF0800F5CF01F020EC74F0024A032A4A
:10EA300002C0F6FF03C0F7FF0800F5500009D8B484
:10EA40001200EBD78D50FE0B8D6E92688C507F0BB1
:10EA50008C6E8C5040098C6E8C50BF0B8C6E8C5021
:10EA600040098C6E80CF01F08C50BF0B8C6E015032
:10EA70001200400E016403D00150C90F02D00150B2
:10EA8000D00F036E0338F00B036E400E026403D008
:10EA90000250C90F02D00250D00F032603501200BB
:10EAA000000E026E000E016E44EC74F0076E0666F6
:10EAB00003D00750010902D00750FE0B076E000E6D
:10EAC000026E000E016E07C003F049EC76F0F0EC28
:10EAD00073F01200000E026E000E016E44EC74F032
:10EAE000076E066603D00750040902D00750FB0BDF
:10EAF000076E000E026E000E016E07C003F049ECB7
:10EB000076F0F0EC73F01200000E026E000E016E53
:10EB100044EC74F0076E066603D00750080902D073
:10EB20000750F70B076E000E026E000E016E07C055
:10EB300003F049EC76F0F0EC73F0120003EC74F0A3
:10EB40000A6E050E016E0A5068EC74F00A6E000E33
:10EB5000016E0A5068EC74F08EEC74F00B6EFFECF2
:10EB600073F00A6E640E016E0A5039EC74F00B50AB
:10EB7000120003EC74F0036E9F0E016E035068ECFC
:10EB800074F0036E000E016E035068EC74F08EECAE
:10EB900074F0066E8EEC74F0046E8EEC74F0056EFC
:10EBA000FFEC73F00650120001500302F3CF05F0A2
:10EBB000F4CF06F001500402F3CFF4FFF36AF350F0
:10EBC0000526F450062202500302F3CFF4FFF36A45
:10EBD000F3500526F450062205C001F006C002F0ED
:10EBE000120001C005F002C006F002D0054A062A54
:10EBF00005C0D9FF06C0DAFFDF50D8A4F7D701C09F
:10EC000003F002C004F0031E041E034A042A055048
:10EC10000324016E06500420026E120007380F0B09
:10EC2000086E07500F0B096E090E086402D0370EEC
:10EC300001D0300E0826090E096402D0370E01D02B
:10EC4000300E092608C001F020EC74F009C001F074
:10EC500020EC74F01200000E056E640E046E09D0F4
:10EC6000036E000E016E035050EC74F00406D8A041
:10EC700005060550800A800F010ED8B4045CD8A0A8
:10EC800005D007EC74F00009D8B4EAD7010E6C6E19
:10EC90001200046E000E056E04500250030BAA6EA3
:10ECA00001C0A9FF03C0A8FFA69EA69CA684000ED3
:10ECB000F2BE010E056EF29E550EA76EAA0EA76E4D
:10ECC000A682A6B2FED705B002D0F29E01D0F28E87
:10ECD000A694120004D0014A022A034A042A01C061
:10ECE000D9FF02C0DAFFDF50056E03C0F6FF04C093
:10ECF000F7FF0800F55000080524066E066607D0E9
:10ED000001C0D9FF02C0DAFFDF50D8A4E4D7065013
:10ED1000016E026A01BE0206120002EE00F011EE60
:10ED200001F0EE6AE550E150FCE1E250FAE101EE5B
:10ED300000F011EE00F0EE6AE550E150FCE1E25027
:10ED4000FAE100EE60F0400EEE6AE806FDE12B6AA3
:10ED50002A6A296A286A276A266A000EF86E000164
:10ED6000A7EF7AF003EC74F0066ED80E016E065031
:10ED700068EC74F005C001F068EC74F003C006F0B4
:10ED800004C007F005C008F007C006F008C007F08F
:10ED9000086A0650016E68EC74F003C001F068EC7C
:10EDA00074F001D000F09EA6FDD7FFEC73F01200C6
:10EDB000000E026E0A0E016E06C003F049EC76F0FA
:10EDC000F0EC73F0000E026E090E016E06C009F041
:10EDD00007C00AF008C00BF00AC009F00BC00AF027
:10EDE0000B6A0950036E49EC76F0F0EC73F0000EFC
:10EDF000026E080E016E08C003F049EC76F0F0ECEC
:10EE000073F01200000E0F010F01386F000E0F019A
:10EE10000F01396F000E0F010F013A6F000E0F0145
:10EE20000F013B6F000E0F010F013C6F9268F30E54
:10EE3000936ED40E946E280E956EFE0E966E000E96
:10EE4000896E000E8A6E030E8B6E060E8C6E000E9F
:10EE50008D6E700ED36E400E9B6E000EB06E8A0EDD
:10EE6000AF6E480EB86E260EAC6E800EAB6E900E76
:10EE7000AB6E120003EC74F0066E020E016E0650CB
:10EE800068EC74F005C001F068EC74F003C006F0A3
:10EE900004C007F005C008F007C006F008C007F07E
:10EEA000086A0650016E68EC74F003C001F068EC6B
:10EEB00074F0000E0A6E000E096E000E095C010E61
:10EEC0000A58D8B010D00101000E0924D96E0101F2
:10EED000010E0A20DA6EDF50016E68EC74F0094A08
:10EEE0000A2AEBD700F09EA6FDD7FFEC73F01200C4
:10EEF00003EC74F0066E030E016E065068EC74F0BD
:10EF000005C001F068EC74F003C006F004C007F01F
:10EF100005C008F007C006F008C007F0086A0650F0
:10EF2000016E68EC74F003C001F068EC74F0066EDA
:10EF3000000E016E065068EC74F0000E0A6E000EB2
:10EF4000096E000E095C010E0A58D8B00ED00101FE
:10EF5000000E0924D96E0101010E0A20DA6E8EEC32
:10EF600074F0DF6E094A0A2AECD7FFEC73F0120046
:10EF7000000E026E080E016E44EC74F0066E065030
:10EF8000096E0A6A0B6A09C007F00AC008F0066A2F
:10EF900008C00BF007C00AF006C009F0000E026EB0
:10EFA000090E016E44EC74F0066E06500910096EED
:10EFB000000E0A100A6E000E0B100B6E09C007F04F
:10EFC0000AC008F0066A08C00BF007C00AF006C0C5
:10EFD00009F0000E026E0A0E016E44EC74F0066E2B
:10EFE00006500910096E000E0A100A6E000E0B1072
:10EFF0000B6E09C003F00AC004F00BC005F012004C
:10F00000000E126E000E136E000E146E9BEC74F068
:10F01000000E166E000E156EFF0E155C070E1658CC
:10F02000D8B044D015C00FF016C010F0116A10C04F
:10F0300011F00FC010F00F6A11C005F010C004F0FD
:10F040000FC003F078EC77F0000E186E000E176E0C
:10F05000000E175C010E1858D8B01DD00101000E2B
:10F060001724D96E0101010E1820DA6EDF50016EEF
:10F0700050EC74F0010E1226000E1322000E142222
:10F080000C50125C0D5013580E501458D8B003D0C9
:10F09000174A182ADDD70C50125C0D5013580E5029
:10F0A0001458D8B003D0154A162AB6D72BEC76F0F0
:10F0B00012009EAA59D0AECF08F008503B0AD8A43F
:10F0C00037D029502810D8A402D0000E12000266B2
:10F0D0001DD0000E076E000E066E0CD0000E06242A
:10F0E000D96E020E0720DA6EDF50016E20EC74F04C
:10F0F000064A072A2850065C29500758D8A0EED7A0
:10F10000036E3B0E016E035020EC74F0000E2824B9
:10F11000D96E020E2920DA6E000EDF6E28C004F0D0
:10F1200029C005F0000E296E000E286E0450120052
:10F1300008507F0AD8A408D029502810D8B414D079
:10F140002806D8A0290610D0000E285C010E2958E8
:10F15000D8B00AD0000E2824D96E020E2920DA6E0B
:10F1600008C0DFFF284A292A000E120074EC74F050
:10F170000009D8B4120017D00C6E000E11D00C6E1E
:10F18000010E0ED00C6E020E0BD00C6E030E08D0CA
:10F190000C6E040E05D00C6E050E02D00C6E060E21
:10F1A000146E0C501FD00B50700B0C6E0D6A0D506E
:10F1B000000AD8A412000C50100AD8B4E6D7300ABE
:10F1C000D8B4E9D7100AD8B4DAD7700AD8B4E6D7D9
:10F1D000100AD8B4D7D7300AD8B4DAD7100AD8A4CE
:10F1E0001200CAD714C001F0026A060E046E000EA7
:10F1F000036ED4EC75F001C00CF002C00DF0000EEF
:10F200000DBEFF0E0E6E0F6E000E0C24156E000E5E
:10F210000D20166E070E0E20176E15C003F016C0D7
:10F2200004F017C005F078EC77F00C6E010E016E5B
:10F230000C50D7EC74F00C6E000E016E0C50E8EC24
:10F2400074F00C6E020E016E0C50D7EC74F00C6E64
:10F25000000E016E0C50E8EC74F0000E136E030EFD
:10F26000126E000E116E000E106E1150800A7A0F91
:10F27000000ED8B4105CD8B0120012C001F0D7EC68
:10F2800074F0124A132A1350800A800F060ED8B465
:10F29000125CD8A004D0000E136E030E126EFF0E87
:10F2A00015140C6E000E16140D6E0101000E0C24C8
:10F2B000D96E0101010E0D20DA6EDF50016EE8EC0F
:10F2C00074F0010E1526000E1622000E1722FF0EF6
:10F2D00015140C6E000E16140D6E000E17140E6E23
:10F2E0000C500D100E10D8A408D015C003F016C095
:10F2F00004F017C005F078EC77F0104A112AB5D762
:10F3000007C001F008C002F0F1EC75F001500F6E7B
:10F310000B0E0F6005D0000E086E010E076E120076
:10F3200007C0D9FF08C0DAFFDF503A0AD8B405D0C9
:10F33000000E086E020E076E120020EE01F007505C
:10F34000D9260850DA22DF50016E20EE02F0075075
:10F35000D9260850DA22DF50026E39EC75F02A6E99
:10F3600020EE05F00750D9260850DA22DF50016E52
:10F3700020EE06F00750D9260850DA22DF50026E40
:10F3800039EC75F0096E20EE03F00750D9260850CD
:10F39000DA22DF50016E20EE04F00750D926085023
:10F3A000DA22DF50026E39EC75F0276E0950266EB6
:10F3B00020EE07F00750D9260850DA22DF50016E00
:10F3C00020EE08F00750D9260850DA22DF50026EEE
:10F3D00039EC75F02B6E2B6644D02A50020D0B0EC3
:10F3E000F326000EF4220F50F318F410D8B405D011
:10F3F000000E086E030E076E1200096E000E106EEE
:10F4000009502AD01050010D0001600EF324D96E6E
:10F410000001000EF420DA6E1050020D090EF326E2
:10F42000000EF422F3500724E16EF4500820E26E3F
:10F43000E750016E1050020D0A0EF326000EF42262
:10F44000F3500724E16EF4500820E26EE750026E9C
:10F4500039EC75F0DF6E102A2A50105CD8B011D04C
:10F46000D1D72B04D8A408D02A50D8B40AD0000E83
:10F47000086E040E076E1200000E086E050E076E71
:10F480001200096E000E0E6E0950096E010E106E0C
:10F4900009501ED01050010DF3500724D96EF450BE
:10F4A0000820DA6EDF50016E1050096E0A6A010EF4
:10F4B0000926000E0A2209500724D96E0A50082096
:10F4C000DA6EDF50026E39EC75F00E26020E102651
:10F4D000FE0E0F24096E0A6AFF0E0A2210500B6EF0
:10F4E0000C6A0C50800A0D6E09500B5C0A50800AA1
:10F4F0000D58D8A0CFD70E6CFE0E0F24096E0A6AE5
:10F50000FF0E0A2209500724D96E0A500820DA6E2D
:10F51000DF50016EFF0E0F240B6E0C6AFF0E0C22E3
:10F520000B500724D96E0C500820DA6EDF50026EA3
:10F5300039EC75F00E18D8B405D0000E086E060E22
:10F54000076E1200000E086E000E076E1200196E94
:10F55000000E1E6E195002EC77F011EC74F05CECAA
:10F5600074F0AAEC74F0196E000E036E1950F9ECE9
:10F5700074F02FEC74F016EC74F0196E000E016E3E
:10F58000195039EC74F081EC74F00009D8B40AD049
:10F59000B8EC77F005C00EF004C00DF003C00CF01D
:10F5A00000EC78F08A5004098A6E8A5008098A6E45
:10F5B000196E060E016E1950D7EC74F022EC75F03E
:10F5C0001F6E1F501C18D8B406D01FC00BF0B6EC2D
:10F5D00078F01FC01CF01EC002F059EC78F0226ECB
:10F5E0002250D8B4E5D71E50D8B466D0020E026EB1
:10F5F000000E016EFF0E046EF30E036E6AEC76F0E1
:10F6000002500110D8A40BD0196E000E1E6E1950B6
:10F61000FF0E036EEF0E026E0CEC75F0C9D7020EF2
:10F62000086E000E076E80EC79F007501D6E1D66A7
:10F6300031D0000E216E000E206E1CD00001600E35
:10F640002024D96E0001000E2120DA6E20C019F0AE
:10F6500021C01AF02650192627501A220101000E47
:10F660001924E16E0101010E1A20E26EDFCFE7FFDF
:10F67000204A212A2A50196E1A6A1950205C1A5001
:10F680002158D8A0DBD7FF0E036EEF0E026E0CECF4
:10F6900075F08ED7FF0E036EF70E026E0CEC75F050
:10F6A0001D50300F016E20EC74F0196E3B0E016E90
:10F6B000195020EC74F07CD7020E026E000E016E21
:10F6C000FF0E046EE50E036E6AEC76F00250011038
:10F6D000D8A407D0FF0E036EEB0E026E0CEC75F093
:10F6E00067D7020E026E000E016EFE0E046EF00E63
:10F6F000036E6AEC76F002500110D8A407D0FF0E1A
:10F70000036E590E026E0CEC75F052D7020E026EAB
:10F71000000E016EFF0E046E4B0E036E6AEC76F067
:10F7200002500110D8A40AD01BEC74F0196E000E20
:10F73000066E195050EC75F0FF003AD7020E026EBB
:10F74000000E016EFF0E046E100E036E6AEC76F072
:10F7500002500110D8A40BD0196E010E1E6E195064
:10F76000FF0E036EEF0E026E0CEC75F021D7020E49
:10F77000026E000E016EFF0E046EAD0E036E6AEC9B
:10F7800076F002500110D8A462D0FF0E036EDF0E97
:10F79000026E0CEC75F0196E000E226E195007D037
:10F7A000196E010E026E195059EC78F0226E22503B
:10F7B000D8B4F6D7000E236E000E246E000E256E10
:10F7C00000C201F001C202F039EC75F0196E1A6A3C
:10F7D0001B6A195023121A5024121B50251223C0E1
:10F7E0001AF024C01BF0196A1BC025F01AC024F0BF
:10F7F00019C023F002C201F003C202F039EC75F027
:10F80000196E1A6A1B6A195023121A5024121B50BF
:10F81000251223C01AF024C01BF0196A1BC025F062
:10F820001AC024F019C023F0AAEC74F023C003F02E
:10F8300024C004F025C005F03AEC77F027EC74F012
:10F84000FF0E036EEF0E026E0CEC75F0B1D6020ED9
:10F85000026E000E016EFF0E046EC00E036E6AECA7
:10F8600076F002500110D8A477D0FF0E036EDF0EA1
:10F87000026E0CEC75F0196E000E226E195007D056
:10F88000196E010E026E195059EC78F0226E22505A
:10F89000D8B4F6D7000E236E000E246E000E256E2F
:10F8A00000C201F001C202F039EC75F0196E1A6A5B
:10F8B0001B6A195023121A5024121B50251223C000
:10F8C0001AF024C01BF0196A1BC025F01AC024F0DE
:10F8D00019C023F002C201F003C202F039EC75F046
:10F8E000196E1A6A1B6A195023121A5024121B50DF
:10F8F000251223C01AF024C01BF0196A1BC025F082
:10F900001AC024F019C023F023C003F024C004F06F
:10F9100025C005F078EC77F0000E216E000E206E09
:10F92000000E205C010E2158D8B00FD00101000E4E
:10F930002024D96E0101010E2120DA6EDF50076EFE
:10F940000EEC76F0204A212AEBD7FF0E036EEF0E65
:10F95000026E0CEC75F02CD6020E026E000E016EDB
:10F96000FF0E046EA30E036E6AEC76F002500110D7
:10F97000D8A40DD0AAEC74F0B9EC74F027EC74F0B4
:10F98000FF0E036EEF0E026E0CEC75F011D6020E38
:10F99000026E000E016EFF0E046E990E036E6AEC8D
:10F9A00076F002500110D8A411D0B8EC77F005C061
:10F9B0000EF004C00DF003C00CF000EC78F0FF0E68
:10F9C000036EEF0E026E0CEC75F0F2D5020E026EB5
:10F9D000000E016EFE0E046EDE0E036E6AEC76F013
:10F9E00002500110D8A40DD0196E010E066E1950E8
:10F9F0006AEC75F0FF0E036EEF0E026E0CEC75F004
:10FA0000D7D5020E026E000E016EFE0E046EDC0EE5
:10FA1000036E6AEC76F002500110D8A40DD0196E76
:10FA2000000E066E19506AEC75F0FF0E036EEF0EB5
:10FA3000026E0CEC75F0BCD5020E026E000E016E6B
:10FA4000FE0E046EC40E036E6AEC76F002500110D6
:10FA5000D8A411D0196E010E066E195084EC75F001
:10FA60001FC00BF0B6EC78F0FF0E036EEF0E026EC7
:10FA70000CEC75F09DD5020E026E000E016EFE0EAE
:10FA8000046EC20E036E6AEC76F002500110D8A428
:10FA90000DD0196E000E066E195084EC75F0FF0E35
:10FAA000036EEF0E026E0CEC75F082D5020E026E44
:10FAB000000E016EFF0E046E2F0E036E6AEC76F0E0
:10FAC00002500110D8A40CD0B9EC75F0076E0EEC02
:10FAD00076F0196E3B0E016E195020EC74F068D56B
:10FAE000020E026E000E016EFF0E046E200E036EFB
:10FAF0006AEC76F002500110D8A40CD09EEC75F0A0
:10FB0000076E0EEC76F0196E3B0E016E195020EC6C
:10FB100074F04ED5020E026E000E016EFF0E046EE2
:10FB2000C90E036E6AEC76F002500110D8A409D019
:10FB3000AAEC74F0FF0E036EEF0E026E0CEC75F083
:10FB400037D5020E026E000E016EFF0E046EB70E68
:10FB5000036E6AEC76F002500110D8A409D0C8EC0C
:10FB600074F0FF0E036EEF0E026E0CEC75F020D5F4
:10FB7000020E026E000E016EFF0E046E660E036E24
:10FB80006AEC76F002500110D8A471D0FF0E036E1B
:10FB9000DF0E026E0CEC75F0196E000E226E19501D
:10FBA00007D0196E010E026E195059EC78F0226ED2
:10FBB0002250D8B4F6D7000E236E000E246E000E2D
:10FBC000256E00C201F001C202F039EC75F0196E29
:10FBD0001A6A1B6A195023121A5024121B5025123C
:10FBE00023C01AF024C01BF0196A1BC025F01AC0EC
:10FBF00024F019C023F002C201F003C202F039EC74
:10FC000075F0196E1A6A1B6A195023121A502412C1
:10FC10001B50251223C01AF024C01BF0196A1BC008
:10FC200025F01AC024F019C023F004C201F005C267
:10FC300002F039EC75F0196E1A6A1B6A195023121A
:10FC40001A5024121B502512AAEC74F023C003F0A2
:10FC500024C004F025C005F0B2EC76F027EC74F077
:10FC6000FF0E036EEF0E026E0CEC75F0A1D4020EC7
:10FC7000026E000E016EFF0E046E800E036E6AECC3
:10FC800076F002500110D8A40FD0AAEC74F0196ECF
:10FC9000000E036E1950F9EC74F0FF0E036EEF0EB8
:10FCA000026E0CEC75F084D4020E026E000E016E32
:10FCB000FF0E046E3D0E036E6AEC76F002500110EA
:10FCC000D8A426D0B8EC77F005C025F004C024F005
:10FCD00003C023F025C007F00EEC76F023C019F026
:10FCE00024C01AF025C01BF01AC019F01BC01AF06E
:10FCF0001B6A1950076E0EEC76F023C007F00EEC6D
:10FD000076F0196E3B0E016E195020EC74F050D451
:10FD1000020E026E000E016EFF0E046E000E036EE8
:10FD20006AEC76F002500110D8A46ED0FF0E036E7C
:10FD3000D90E026E0CEC75F0196E000E226E195081
:10FD400007D0196E010E026E195059EC78F0226E30
:10FD50002250D8B4F6D7000E236E000E246E000E8B
:10FD6000256E00C201F001C202F039EC75F0196E87
:10FD70001A6A1B6A195023121A5024121B5025129A
:10FD800023C01AF024C01BF0196A1BC025F01AC04A
:10FD900024F019C023F002C201F003C202F039ECD2
:10FDA00075F0196E1A6A1B6A195023121A50241220
:10FDB0001B50251223C01AF024C01BF0196A1BC067
:10FDC00025F01AC024F019C023F004C201F005C2C6
:10FDD00002F039EC75F0196E1A6A1B6A1950231279
:10FDE0001A5024121B50251223C006F024C007F01D
:10FDF00025C008F0D8EC76F0FF0E036EEF0E026E11
:10FE00000CEC75F0D8EF7AF0020E026E000E016E67
:10FE1000FF0E046E730E036E6AEC76F00250011052
:10FE2000D8A426D0FF0E036ED20E026E0CEC75F035
:10FE3000196E000E226E195007D0196E010E026E57
:10FE4000195059EC78F0226E2250D8B4F6D7D00E63
:10FE5000196E00C21AF019501A240B6EB6EC78F025
:10FE6000FF0E036EEF0E026E0CEC75F0D8EF7AF019
:10FE7000020E026E000E016EFF0E046E8D0E036EFA
:10FE80006AEC76F002500110D8A413D0196E060E59
:10FE9000016E1950D7EC74F022EC75F0076E0EEC81
:10FEA00076F0196E3B0E016E195020EC74F0D8EF0D
:10FEB0007AF0FF0E036EFB0E026E0CEC75F0D8EFBD
:10FEC0007AF0756E7365745F6175746F5F636861F6
:10FED0006E67655F70616C6574746500756E7365DF
:10FEE000745F6175746F6C6F61645F6670676100E9
:10FEF000626F6F746C6F616465725F6D6F646500D3
:10FF000077726974655F667067615F73697A6500AF
:10FF10006C6F61645F7370695F62756666657200BD
:10FF20006765745F7370695F73746174757300677C
:10FF300065745F7370695F64657669640067657492
:10FF40005F667067615F73697A6500746F5F626F87
:10FF50006F746C6F61646572006170706C6963616D
:10FF600074696F6E3B00736563746F725F65726175
:10FF70007365006C6F61645F70616C6574746500BB
:10FF80007370695F756E7365745F62700067657426
:10FF90005F6A756D7065727300696E69745F667013
:10FFA00067610065726173655F737069007772697C
:10FFB00074655F737069007370695F77726469005C
:10FFC000726561645F737069007370695F777265F1
:10FFD0006E0077686963683B0073697A653B00610E
:10FFE0006464723B0068656C6C6F0068693B006F0D
:10FFF0006B3B00656E6400657272003F3B00000061
:020000040020DA
:08000000FFFFFFFFFFFFFFFF00
:020000040030CA
:0E000000FFA8113CFF8081FF0FC00FE00F40F2
:00000001FF
